{"abi":[{"type":"function","name":"verify","inputs":[{"name":"digest","type":"bytes32","internalType":"bytes32"},{"name":"sig","type":"bytes","internalType":"bytes"},{"name":"key","type":"tuple","internalType":"struct KeyRef","components":[{"name":"scheme","type":"uint8","internalType":"uint8"},{"name":"pubkey","type":"bytes","internalType":"bytes"}]}],"outputs":[{"name":"","type":"bool","internalType":"bool"}],"stateMutability":"pure"},{"type":"error","name":"ECDSAInvalidSignature","inputs":[]},{"type":"error","name":"ECDSAInvalidSignatureLength","inputs":[{"name":"length","type":"uint256","internalType":"uint256"}]},{"type":"error","name":"ECDSAInvalidSignatureS","inputs":[{"name":"s","type":"bytes32","internalType":"bytes32"}]}],"bytecode":{"object":"0x608060405234801561000f575f80fd5b506104738061001d5f395ff3fe608060405234801561000f575f80fd5b5060043610610029575f3560e01c8063f71146eb1461002d575b5f80fd5b61004061003b3660046102e6565b610054565b604051901515815260200160405180910390f35b5f6100626020830183610383565b60ff161561007157505f6100e4565b5f6100b18686868080601f0160208091040260200160405190810160405280939291908181526020018383808284375f920191909152506100ec92505050565b90506100c060208401846103aa565b6100c9916103f4565b60601c6001600160a01b0316816001600160a01b0316149150505b949350505050565b5f805f806100fa8686610114565b92509250925061010a828261015d565b5090949350505050565b5f805f835160410361014b576020840151604085015160608601515f1a61013d8882858561021e565b955095509550505050610156565b505081515f91506002905b9250925092565b5f82600381111561017057610170610429565b03610179575050565b600182600381111561018d5761018d610429565b036101ab5760405163f645eedf60e01b815260040160405180910390fd5b60028260038111156101bf576101bf610429565b036101e55760405163fce698f760e01b8152600481018290526024015b60405180910390fd5b60038260038111156101f9576101f9610429565b0361021a576040516335e2f38360e21b8152600481018290526024016101dc565b5050565b5f80807f7fffffffffffffffffffffffffffffff5d576e7357a4501ddfe92f46681b20a084111561025757505f915060039050826102dc565b604080515f808252602082018084528a905260ff891692820192909252606081018790526080810186905260019060a0016020604051602081039080840390855afa1580156102a8573d5f803e3d5ffd5b5050604051601f1901519150506001600160a01b0381166102d357505f9250600191508290506102dc565b92505f91508190505b9450945094915050565b5f805f80606085870312156102f9575f80fd5b84359350602085013567ffffffffffffffff80821115610317575f80fd5b818701915087601f83011261032a575f80fd5b813581811115610338575f80fd5b886020828501011115610349575f80fd5b602083019550809450506040870135915080821115610366575f80fd5b50850160408188031215610378575f80fd5b939692955090935050565b5f60208284031215610393575f80fd5b813560ff811681146103a3575f80fd5b9392505050565b5f808335601e198436030181126103bf575f80fd5b83018035915067ffffffffffffffff8211156103d9575f80fd5b6020019150368190038213156103ed575f80fd5b9250929050565b6bffffffffffffffffffffffff1981358181169160148510156104215780818660140360031b1b83161692505b505092915050565b634e487b7160e01b5f52602160045260245ffdfea26469706673582212200ef5e4fbd7c98f27554d341bb80e6e8b87236210a169a4477e6abb318b135cd864736f6c63430008180033","linkReferences":{}},"methodIdentifiers":{"verify(bytes32,bytes,(uint8,bytes))":"f71146eb"},"id":29}