{"abi":[{"type":"constructor","inputs":[{"name":"verifier_","type":"address","internalType":"contract IAuthVerifier"},{"name":"dev_","type":"bool","internalType":"bool"}],"stateMutability":"nonpayable"},{"type":"function","name":"DEV","inputs":[],"outputs":[{"name":"","type":"bool","internalType":"bool"}],"stateMutability":"view"},{"type":"function","name":"VERIFIER","inputs":[],"outputs":[{"name":"","type":"address","internalType":"contract IAuthVerifier"}],"stateMutability":"view"},{"type":"function","name":"canExecute","inputs":[{"name":"walletId","type":"uint256","internalType":"uint256"},{"name":"opId","type":"bytes32","internalType":"bytes32"}],"outputs":[{"name":"ok","type":"bool","internalType":"bool"},{"name":"reasons","type":"uint256","internalType":"uint256"}],"stateMutability":"view"},{"type":"function","name":"canExecuteTyped","inputs":[{"name":"walletId","type":"uint256","internalType":"uint256"},{"name":"opId","type":"bytes32","internalType":"bytes32"},{"name":"expectedOpType","type":"uint8","internalType":"enum OpType"}],"outputs":[{"name":"ok","type":"bool","internalType":"bool"},{"name":"reasons","type":"uint256","internalType":"uint256"}],"stateMutability":"view"},{"type":"function","name":"canPropose","inputs":[{"name":"walletId","type":"uint256","internalType":"uint256"},{"name":"","type":"uint8","internalType":"uint8"},{"name":"actor","type":"address","internalType":"address"}],"outputs":[{"name":"ok","type":"bool","internalType":"bool"},{"name":"reasons","type":"uint256","internalType":"uint256"}],"stateMutability":"view"},{"type":"function","name":"devCreateRecoveryOp","inputs":[{"name":"walletId","type":"uint256","internalType":"uint256"},{"name":"opId","type":"bytes32","internalType":"bytes32"},{"name":"payloadHash","type":"bytes32","internalType":"bytes32"},{"name":"executableAt","type":"uint64","internalType":"uint64"},{"name":"expiresAt","type":"uint64","internalType":"uint64"}],"outputs":[],"stateMutability":"nonpayable"},{"type":"function","name":"devExecuteRecovery","inputs":[{"name":"walletId","type":"uint256","internalType":"uint256"},{"name":"opId","type":"bytes32","internalType":"bytes32"}],"outputs":[],"stateMutability":"nonpayable"},{"type":"function","name":"domainSeparator","inputs":[],"outputs":[{"name":"","type":"bytes32","internalType":"bytes32"}],"stateMutability":"view"},{"type":"function","name":"explainBlockers","inputs":[{"name":"walletId","type":"uint256","internalType":"uint256"},{"name":"opId","type":"bytes32","internalType":"bytes32"}],"outputs":[{"name":"reasons","type":"uint256","internalType":"uint256"}],"stateMutability":"view"},{"type":"function","name":"explainBlockersTyped","inputs":[{"name":"walletId","type":"uint256","internalType":"uint256"},{"name":"opId","type":"bytes32","internalType":"bytes32"},{"name":"expectedOpType","type":"uint8","internalType":"enum OpType"}],"outputs":[{"name":"reasons","type":"uint256","internalType":"uint256"}],"stateMutability":"view"},{"type":"function","name":"explainWalletStatus","inputs":[{"name":"walletId","type":"uint256","internalType":"uint256"}],"outputs":[{"name":"reasons","type":"uint256","internalType":"uint256"}],"stateMutability":"view"},{"type":"function","name":"guardianKeyId","inputs":[{"name":"epoch","type":"uint64","internalType":"uint64"},{"name":"k","type":"tuple","internalType":"struct KeyRef","components":[{"name":"scheme","type":"uint8","internalType":"uint8"},{"name":"pubkey","type":"bytes","internalType":"bytes"}]}],"outputs":[{"name":"","type":"bytes32","internalType":"bytes32"}],"stateMutability":"pure"},{"type":"function","name":"initializeWalletSingle","inputs":[{"name":"walletId","type":"uint256","internalType":"uint256"},{"name":"owner","type":"tuple","internalType":"struct KeyRef","components":[{"name":"scheme","type":"uint8","internalType":"uint8"},{"name":"pubkey","type":"bytes","internalType":"bytes"}]},{"name":"guardian","type":"tuple","internalType":"struct KeyRef","components":[{"name":"scheme","type":"uint8","internalType":"uint8"},{"name":"pubkey","type":"bytes","internalType":"bytes"}]},{"name":"policy","type":"tuple","internalType":"struct Policy","components":[{"name":"rotationDelay","type":"uint64","internalType":"uint64"},{"name":"recoveryDelay","type":"uint64","internalType":"uint64"},{"name":"freezeMaxDuration","type":"uint64","internalType":"uint64"},{"name":"windowSeconds","type":"uint64","internalType":"uint64"},{"name":"maxRotationsPerWindow","type":"uint32","internalType":"uint32"},{"name":"minFinalizeCooldown","type":"uint64","internalType":"uint64"},{"name":"recoveryCooldown","type":"uint64","internalType":"uint64"},{"name":"contestableRecovery","type":"bool","internalType":"bool"}]}],"outputs":[],"stateMutability":"nonpayable"},{"type":"function","name":"keyId","inputs":[{"name":"k","type":"tuple","internalType":"struct KeyRef","components":[{"name":"scheme","type":"uint8","internalType":"uint8"},{"name":"pubkey","type":"bytes","internalType":"bytes"}]}],"outputs":[{"name":"","type":"bytes32","internalType":"bytes32"}],"stateMutability":"pure"},{"type":"error","name":"DevOnly","inputs":[]}],"bytecode":{"object":"0x60e060405234801561000f575f80fd5b5060405161160038038061160083398101604081905261002e9161010f565b604080518082018252600e81526d514b6579526f746174696f6e563160901b60208083019182528351808501855260058152640312e302e360dc1b81830152835190922084517f8b73c3c69bb8fe3d512ecc4cf759cc79239f7b179b0ffacaa9a75d522b39400f92810192909252938101939093527f06c015bd22b4c69690933c1058878ebdfef31f9aaae40bbe86d8a09fe1b2972c60608401524660808401523060a0840152909160c00160408051601f19818403018152919052805160209091012060805250506001600160a01b0390911660a052151560c052610156565b5f8060408385031215610120575f80fd5b82516001600160a01b0381168114610136575f80fd5b6020840151909250801515811461014b575f80fd5b809150509250929050565b60805160a05160c05161146561019b5f395f81816102170152818161031e0152818161036401528181610700015261073d01525f60ee01525f61025e01526114655ff3fe608060405234801561000f575f80fd5b50600436106100e5575f3560e01c8063939e6c6011610088578063b0a7ab4c11610063578063b0a7ab4c146101ff578063c1eb5ddd14610212578063ddada4d714610249578063f698da251461025c575f80fd5b8063939e6c60146101c6578063966e9e89146101d9578063aa6a66db146101ec575f80fd5b80632cc5f527116100c35780632cc5f5271461016c5780633303ac3e1461018d5780636926ac6c146101a057806390b618b7146101b3575f80fd5b806308c84e70146100e9578063151af26b1461012d5780632338de2f14610157575b5f80fd5b6101107f000000000000000000000000000000000000000000000000000000000000000081565b6040516001600160a01b0390911681526020015b60405180910390f35b61014061013b366004610e02565b610282565b604080519215158352602083019190915201610124565b61016a610165366004610e4a565b61031c565b005b61017f61017a366004610e9c565b610599565b604051908152602001610124565b61014061019b366004610ee8565b610618565b6101406101ae366004610e4a565b61068f565b61017f6101c1366004610f16565b6106a7565b61016a6101d4366004610f2d565b6106fe565b61017f6101e7366004610e4a565b6108e0565b61016a6101fa366004610f7f565b610a51565b61017f61020d366004610ee8565b610bae565b6102397f000000000000000000000000000000000000000000000000000000000000000081565b6040519015158152602001610124565b61017f610257366004611002565b610c72565b7f000000000000000000000000000000000000000000000000000000000000000061017f565b6040516390b618b760e01b8152600481018490525f90819030906390b618b790602401602060405180830381865afa1580156102c0573d5f803e3d5ffd5b505050506040513d601f19601f820116820180604052508101906102e4919061103b565b905080156102f4575f9150610314565b6001600160a01b03831661030d57505f90506080610314565b50600190505f5b935093915050565b7f00000000000000000000000000000000000000000000000000000000000000006103625760405162461bcd60e51b815260040161035990611052565b60405180910390fd5b7f000000000000000000000000000000000000000000000000000000000000000061039f5760405162461bcd60e51b815260040161035990611052565b46617a69146103c15760405163999da23760e01b815260040160405180910390fd5b5f828152602081815260408083208484526001909252909120805460ff1661041e5760405162461bcd60e51b815260206004820152601060248201526f0514b45593a20756e6b6e6f776e206f760841b6044820152606401610359565b6002810154600160c01b900460ff168061044357506002810154600160c81b900460ff165b156104905760405162461bcd60e51b815260206004820152601760248201527f514b45593a20616c72656164792066696e616c697a65640000000000000000006044820152606401610359565b60028101546001600160401b03164210156104df5760405162461bcd60e51b815260206004820152600f60248201526e514b45593a20746f6f206561726c7960881b6044820152606401610359565b6002810154600160401b90046001600160401b03161580159061051557506002810154600160401b90046001600160401b031642115b156105525760405162461bcd60e51b815260206004820152600d60248201526c1452d1564e88195e1c1a5c9959609a1b6044820152606401610359565b60028101805460ff60c01b1916600160c01b17905561057082610cd6565b50600b0180546001600160401b038082166001011667ffffffffffffffff199091161790555050565b5f826105a8602084018461107a565b6105b56020850185611093565b6040516105c39291906110dc565b6040519081900381206105f99392916020016001600160401b0393909316835260ff919091166020830152604082015260600190565b6040516020818303038152906040528051906020012090505b92915050565b604051632c29ead360e21b81525f908190309063b0a7ab4c90610643908890889088906004016110ff565b602060405180830381865afa15801561065e573d5f803e3d5ffd5b505050506040513d601f19601f82011682018060405250810190610682919061103b565b8015969095509350505050565b5f8061069b84846108e0565b80159590945092505050565b5f818152602081905260408120805460ff166106c4576001821791505b60088101546001600160401b0316158015906106ec575060088101546001600160401b031642105b156106f8576002821791505b50919050565b7f000000000000000000000000000000000000000000000000000000000000000061073b5760405162461bcd60e51b815260040161035990611052565b7f00000000000000000000000000000000000000000000000000000000000000006107785760405162461bcd60e51b815260040161035990611052565b46617a691461079a5760405163999da23760e01b815260040160405180910390fd5b5f858152602081905260408120906107b182610d3e565b905080156108015760405162461bcd60e51b815260206004820152601e60248201527f514b45593a207265636f766572792070726f706f736520626c6f636b656400006044820152606401610359565b5f868152600160205260409020805460ff16156108525760405162461bcd60e51b815260206004820152600f60248201526e514b45593a206f702065786973747360881b6044820152606401610359565b805461ffff1916610201178155600181019590955550600290930180546001600160401b039384166fffffffffffffffffffffffffffffffff1990911617600160401b9284169290920291909117808255600b84015467ffffffffffffffff60801b199091169216600160801b02919091179055600a018054600160a01b60ff60a01b199091161790555050565b6040516390b618b760e01b8152600481018390525f9030906390b618b790602401602060405180830381865afa15801561091c573d5f803e3d5ffd5b505050506040513d601f19601f82011682018060405250810190610940919061103b565b90508061061257816109555750610100610612565b5f828152600160205260409020805460ff1661097657612000915050610612565b5f848152602081905260409020600b01546002820154600160801b90046001600160401b039081169116146109af576040915050610612565b6002810154600160c81b900460ff16806109d457506002810154600160c01b900460ff165b156109e457610400915050610612565b60028101546001600160401b0316421015610a03576010915050610612565b6002810154600160401b90046001600160401b031615801590610a3957506002810154600160401b90046001600160401b031642115b15610a48576020915050610612565b505f9392505050565b46617a6914610a735760405163999da23760e01b815260040160405180910390fd5b5f848152602081905260409020805460ff1615610ad25760405162461bcd60e51b815260206004820152601960248201527f514b45593a20616c726561647920696e697469616c697a6564000000000000006044820152606401610359565b610adb84610db8565b6001820155610ae983610db8565b60028201558160038201610afd8282611179565b905050610b0982610ddb565b60058201556001600682015f610b1e87610c72565b815260208101919091526040015f908120805460ff191692151592909217909155600b8201805467ffffffffffffffff191690556001906007830190610b648187610599565b815260208101919091526040015f20805491151560ff199283161790558154166001178155600a0180546001600160401b03421667ffffffffffffffff1990911617905550505050565b60405163966e9e8960e01b815260048101849052602481018390525f90309063966e9e8990604401602060405180830381865afa158015610bf1573d5f803e3d5ffd5b505050506040513d601f19601f82011682018060405250810190610c15919061103b565b905080610c6b575f838152600160205260409020826008811115610c3b57610c3b6110eb565b8154610100900460ff166008811115610c5657610c566110eb565b14610c6657610800915050610c6b565b5f9150505b9392505050565b5f610c80602083018361107a565b610c8d6020840184611093565b604051610c9b9291906110dc565b6040805191829003822060ff90931660208301528101919091526060015b604051602081830303815290604052805190602001209050919050565b600a8101805460ff60a01b191690556004810154600160601b90046001600160401b03165f819003610d08575f610d12565b610d12814261131f565b82600a0160156101000a8154816001600160401b0302191690836001600160401b031602179055505050565b80545f9060ff16610d5157506001919050565b600a820154600160a01b900460ff1615610d6e5750618000919050565b600a820154600160a81b90046001600160401b031615801590610da45750600a820154600160a81b90046001600160401b031642105b15610db157506004919050565b505f919050565b5f6001610dc483610c72565b604080516020810193909352820152606001610cb9565b5f81604051602001610cb99190611368565b803560ff81168114610dfd575f80fd5b919050565b5f805f60608486031215610e14575f80fd5b83359250610e2460208501610ded565b915060408401356001600160a01b0381168114610e3f575f80fd5b809150509250925092565b5f8060408385031215610e5b575f80fd5b50508035926020909101359150565b6001600160401b0381168114610e7e575f80fd5b50565b8035610dfd81610e6a565b5f604082840312156106f8575f80fd5b5f8060408385031215610ead575f80fd5b8235610eb881610e6a565b915060208301356001600160401b03811115610ed2575f80fd5b610ede85828601610e8c565b9150509250929050565b5f805f60608486031215610efa575f80fd5b8335925060208401359150604084013560098110610e3f575f80fd5b5f60208284031215610f26575f80fd5b5035919050565b5f805f805f60a08688031215610f41575f80fd5b8535945060208601359350604086013592506060860135610f6181610e6a565b91506080860135610f7181610e6a565b809150509295509295909350565b5f805f80848603610160811215610f94575f80fd5b8535945060208601356001600160401b0380821115610fb1575f80fd5b610fbd89838a01610e8c565b95506040880135915080821115610fd2575f80fd5b50610fdf88828901610e8c565b935050610100605f1982011215610ff4575f80fd5b509295919450926060019150565b5f60208284031215611012575f80fd5b81356001600160401b03811115611027575f80fd5b61103384828501610e8c565b949350505050565b5f6020828403121561104b575f80fd5b5051919050565b6020808252600e908201526d514b45593a206465762d6f6e6c7960901b604082015260600190565b5f6020828403121561108a575f80fd5b610c6b82610ded565b5f808335601e198436030181126110a8575f80fd5b8301803591506001600160401b038211156110c1575f80fd5b6020019150368190038213156110d5575f80fd5b9250929050565b818382375f9101908152919050565b634e487b7160e01b5f52602160045260245ffd5b83815260208101839052606081016009831061112957634e487b7160e01b5f52602160045260245ffd5b826040830152949350505050565b5f813561061281610e6a565b63ffffffff81168114610e7e575f80fd5b5f813561061281611143565b8015158114610e7e575f80fd5b5f813561061281611160565b813561118481610e6a565b6001600160401b03811690508154816001600160401b0319821617835560208401356111af81610e6a565b6fffffffffffffffff00000000000000008160401b16836fffffffffffffffffffffffffffffffff1984161717845550505061121c6111f060408401611137565b82805467ffffffffffffffff60801b191660809290921b67ffffffffffffffff60801b16919091179055565b61124f61122b60608401611137565b8280546001600160c01b031660c09290921b6001600160c01b031916919091179055565b6001810161127961126260808501611154565b825463ffffffff191663ffffffff91909116178255565b6112b261128860a08501611137565b82546bffffffffffffffff00000000191660209190911b6bffffffffffffffff0000000016178255565b6112ed6112c160c08501611137565b82805467ffffffffffffffff60601b191660609290921b67ffffffffffffffff60601b16919091179055565b61131a6112fc60e0850161116d565b82805460ff60a01b191691151560a01b60ff60a01b16919091179055565b505050565b6001600160401b0381811683821601908082111561134b57634e487b7160e01b5f52601160045260245ffd5b5092915050565b8035610dfd81611143565b8035610dfd81611160565b6101008101823561137881610e6a565b6001600160401b03908116835260208401359061139482610e6a565b90811660208401526040840135906113ab82610e6a565b1660408301526113bd60608401610e81565b6001600160401b031660608301526113d760808401611352565b63ffffffff1660808301526113ee60a08401610e81565b6001600160401b031660a083015261140860c08401610e81565b6001600160401b031660c083015261142260e0840161135d565b80151560e084015261134b56fea2646970667358221220ca9f3a24d872c6258622b475596c9c66c1f15a9ef09c5993d3b6b53298a18f4f64736f6c63430008180033","linkReferences":{}},"methodIdentifiers":{"DEV()":"c1eb5ddd","VERIFIER()":"08c84e70","canExecute(uint256,bytes32)":"6926ac6c","canExecuteTyped(uint256,bytes32,uint8)":"3303ac3e","canPropose(uint256,uint8,address)":"151af26b","devCreateRecoveryOp(uint256,bytes32,bytes32,uint64,uint64)":"939e6c60","devExecuteRecovery(uint256,bytes32)":"2338de2f","domainSeparator()":"f698da25","explainBlockers(uint256,bytes32)":"966e9e89","explainBlockersTyped(uint256,bytes32,uint8)":"b0a7ab4c","explainWalletStatus(uint256)":"90b618b7","guardianKeyId(uint64,(uint8,bytes))":"2cc5f527","initializeWalletSingle(uint256,(uint8,bytes),(uint8,bytes),(uint64,uint64,uint64,uint64,uint32,uint64,uint64,bool))":"aa6a66db","keyId((uint8,bytes))":"ddada4d7"},"id":25}